:020000040800F2
:1000000068620020390300088F3D0008093D0008A0
:100010008D3D0008E31900084B590008000000005E
:100020000000000000000000000000009F3D0008EC
:10003000BD1A0008000000009D3D0008A13D000819
:100040005303000853030008530300085303000838
:100050005303000853030008530300085303000828
:100060005303000853030008530300085303000818
:100070005303000853030008530300085303000808
:100080005303000853030008530300080000000056
:100090000000000000000000000000005303000802
:1000A00053030008530300085303000853030008D8
:1000B00053030008530300085303000853030008C8
:1000C00053030008530300085303000853030008B8
:1000D0005303000853030008530300080000000006
:1000E00053030008530300085303000800000000F6
:1000F00000000000000000000000000053030008A2
:1001000000000000530300085303000853030008D5
:1001100000000000000000000000000000000000DF
:10012000591A000853030008611A00086D1A0008E4
:100130005303000800000000000000000000000061
:10014000000000000000000000000000913D0008D9
:100150005303000853030008791A000853030008EA
:1001600053030008530300080000000000000000D3
:10017000000000000000000000000000000000007F
:100180000000000053030008000000000000000011
:10019000530300085303000800F002F800F0BCF815
:1001A0000AA090E8000C82448344AAF10107DA45D2
:1001B00001D100F0B1F8AFF2090EBAE80F0013F068
:1001C000010F18BFFB1A43F0010318470C8C000005
:1001D0002C8C00000A444FF0000C10F8013B13F087
:1001E000070408BF10F8014B1D1108BF10F8015B90
:1001F000641E05D010F8016B641E01F8016BF9D183
:1002000013F0080F1EBF10F8014BAD1C0C1B09D1D9
:100210006D1E58BF01F801CBFAD505E014F8016B4B
:1002200001F8016B6D1EF9D59142D6D370470000DD
:100230000023002400250026103A28BF78C1FBD8EF
:10024000520728BF30C148BF0B6070474B1C012BC1
:1002500098BF70472DE9F003911C9B08B1F804800A
:10026000B1F802900A8831F802CC804481440244FB
:100270008444D9F80070D8F800601568DCF80040B4
:10028000C9F80060C8F80070CCF800501460D9F8C4
:100290000470D8F804605568DCF80440C9F80460BC
:1002A000C8F80470CCF80450546008315B1ED5D1F6
:1002B000BDE8F00370474B1C012B98BF70472DE938
:1002C000F003911C9B08B1F80480B1F802900A88F1
:1002D00031F802CC00EB580800EB590900EB520250
:1002E00000EB5C0CD9F80070D8F800601568DCF8F9
:1002F0000040C9F80060C8F80070CCF800501460E5
:1003000008315B1EDFD1BDE8F00370471FB505F073
:1003100034FE1FBD10B510BD01F0ECFA1146FFF719
:10032000F5FF05F01DFB01F00AFB03B4FFF7F2FF38
:1003300003BC01F00DFB0000094880470948004755
:10034000FEE7FEE7FEE7FEE7FEE7FEE7FEE7FEE785
:10035000FEE7FEE704480549054A064B70470000E2
:100360004D3E000899010008685C0020686200208A
:10037000685E0020685E00202DE9F04791460D463A
:10038000044697084FF0000866D000BF54F8046B8D
:1003900054F8040B014605F0E7FD82463146084655
:1003A00005F0E2FD514605F0C6FD2E1D10F1FF4F90
:1003B00028BFC5F8008002D205F09EFD286054F8E1
:1003C000045B54F8040B014605F0CEFD8246294635
:1003D000084605F0C9FD514605F0ADFD351D10F18B
:1003E000FF4F28BFC6F8008002D205F085FD3060BF
:1003F00054F8046B54F8040B014605F0B5FD824631
:100400003146084605F0B0FD514605F094FD2E1D1D
:1004100010F1FF4F28BFC5F8008002D205F06CFD37
:10042000286054F8045B54F8040B014605F09CFD69
:1004300082462946084605F097FD514605F07BFDAA
:10044000351D10F1FF4F28BFC6F8008002D205F01D
:1004500053FD30607F1E99D119F0030608BFBDE837
:10046000F08700BF54F8047B54F8040B014605F0F4
:100470007BFD81463946084605F076FD494605F084
:100480005AFD2F462D1D10F1FF4F28BFC7F80080E1
:1004900002D205F031FD3860761EE3D1BDE8F08769
:1004A0002DE9F34F9BB00C461B98008801EB8005AB
:1004B0001B99400804EB8006D1F804800590CDE933
:1004C0000B5405EB80075FEA900900F00481236874
:1004D000029362681792A2681A92E26815922968DC
:1004E0000E9168680690A8681290E86811903068CC
:1004F000189072680792B2681692F2680392D7E970
:1005000000A01390B86810901846D7F80CB005F00A
:1005100012FD44F8040B0699179805F00CFD44F8F9
:10052000040B12991A9805F006FD44F8040B119972
:10053000159805F000FD44F8040B0E99029805F09B
:1005400021FD0E900699179805F01CFD0690129952
:100550001A9805F017FD12901199159805F012FDE3
:1005600011905146189805F0E6FC46F8040B1399D3
:10057000079805F0E0FC46F8040B1099169805F072
:10058000DAFC46F8040B5946039805F0D4FC46F80B
:10059000040B5046189905F0F5FC14900799139830
:1005A00005F0F0FC13901699109805F0EBFC1090F4
:1005B0005846039905F0E6FC824658F8040B019072
:1005C00058F804BB01990E9805F0CEFC03905946EB
:1005D000069805F0C9FC02900199069805F0C4FC44
:1005E000069059460E9805F0BFFC0790DDE9021011
:1005F00005F0A1FC45F8040BDDE9060105F0C2FC9D
:1006000045F8040B5946149805F0AEFC0390019987
:10061000139805F0A9FC02905946139805F0A4FC24
:1006200006900199149805F09FFC8346DDE90210BD
:1006300005F0A8FC47F8040B5946069805F07BFC2A
:1006400047F8040B58F8040B019058F804BB0199C3
:10065000129805F089FC03905946119805F084FC26
:1006600002900199119805F07FFC06905946129866
:1006700005F07AFC0790DDE9021005F05CFC45F816
:10068000040BDDE9060105F07DFC45F8040B594635
:10069000109805F069FC03905046019905F064FC40
:1006A00002905046594605F05FFC83460199109828
:1006B00005F05AFC8246DDE9021005F063FC47F8BC
:1006C000040B5146584605F036FC47F8040BB9F1C7
:1006D00001097FF4FCAE1B980223059942680C982F
:1006E00000F0F8FB1B980599022342680B981DB097
:1006F000BDE8F04F00F0EEBB2DE9F34FA7B00F4679
:1007000027980088400801EB800404EB800606EB84
:10071000800518961A95CDE91D412799A5F1040A7F
:100720000AEB80094968400806900A910420199054
:1007300006200E910D911590306801903868A4F153
:10074000040BA6F104080090019905F0F4FB029057
:10075000DDE9000105F016FC0390706805907868EB
:100760000190059905F0E7FB00900599019805F0C7
:1007700009FC0190606810900146039805F0DBFBCE
:1007800069680C9105F0FEFB169020680F900146F9
:10079000019805F0F7FB2968059105F0CCFB119055
:1007A0000F99029805F0EEFB059905F0EBFB14900C
:1007B0001099009805F0E6FB0C9905F0E3FB0B900F
:1007C0001099039805F0DEFB0C9905F0B4FB0C9032
:1007D0000F99019805F0AFFB059905F0D3FB129036
:1007E0000F99029805F0A7FB059905F0A4FB47F8BF
:1007F000040B6168009805F09EFB696805F09BFB9F
:1008000047F8040B169844F8040B119844F8040BAD
:10081000149846F8040B0B9846F8040B0C9845F80E
:10082000040B129845F8040B0A9901F108000D9980
:100830000A9001F110000E990D9001F118000E9030
:100840000698801E4008209000F0C6813068019014
:1008500038680090019905F06EFB0290DDE9000117
:1008600005F090FB039070680590786801900599F9
:1008700005F061FB00900599019805F083FB01905C
:1008800060680C900146039805F055FB696810916B
:1008900005F078FB169020680F900146019805F04E
:1008A00071FB2968059105F046FB11900F9902989C
:1008B00005F068FB059905F065FB14900C9900980C
:1008C00005F060FB109905F05DFB0B900C99039807
:1008D00005F058FB109905F02EFB0C900F9901982C
:1008E00005F029FB059905F04DFB12900F99029830
:1008F00005F021FB059905F01EFB47F8040B616824
:10090000009805F018FB696805F015FB47F8040B23
:100910005AF8040C02905BF8040C0190029905F05F
:100920000AFB0090DDE9010105F02CFB0190DAF8EB
:1009300000000590DBF800000390059905F0FBFA34
:1009400002900599039805F01DFB10900390D9F8CB
:1009500000000590D8F800001390059905F012FBEF
:100960002290019905F0E7FA269058F8041C109897
:10097000109105F007FB59F8041C0F9105F0DBFA04
:1009800023901099009805F0FDFA0F9905F0FAFAF6
:1009900024901399029805F0F5FA059905F0F2FAFA
:1009A00021900199229805F0EDFA2290DDE90F01DE
:1009B00005F0E8FA039905F0E5FA17901399029803
:1009C00005F0B9FA059905F0B6FACBF80000ABF1DD
:1009D00004011F9158F8041C009805F0ACFA59F86E
:1009E000041C05F0A8FA1F99ABF1080B08600A98DF
:1009F000006801900A984168009108300A900199B6
:100A0000169805F0B1FA10900099119805F0ACFA1B
:100A10000F900199119805F0A7FA03900099169884
:100A200005F0A2FA0290DDE90F1005F084FA44F80F
:100A3000040BDDE9021005F0A5FA44F8040B009957
:100A4000239805F091FA10900199269805F08CFAF8
:100A50000F900099269805F087FA03900199239842
:100A600005F082FA0290DDE90F1005F08BFAA8F18B
:100A70000401C8F800001C91DDE9021005F05BFAE2
:100A80001C99A8F1080808600D980D99006801905C
:100A90000D9840680090199801EB80000D90019925
:100AA000149805F061FA109000990B9805F05CFA23
:100AB0000F9001990B9805F057FA0390009914983C
:100AC00005F052FA0290DDE90F1005F034FA46F80D
:100AD000040BDDE9021005F055FA46F8040B2198E5
:100AE000019980F0004005F03FFA10900099249899
:100AF00005F03AFA0F900199249805F035FA039021
:100B00000099219805F030FA0290DDE90F1005F008
:100B100039FAAAF10401CAF800000991DDE90201DD
:100B200005F030FA0999AAF1080A08600E980068E1
:100B300001900E981599406800900E9800EB810086
:100B40000E9001990C9805F00FFA109000991298E8
:100B500005F00AFA0F900199129805F005FA039032
:100B600000990C9805F000FA0290DDE90F1005F0ED
:100B7000E2F945F8040BDDE9021005F003FA45F847
:100B8000040B0099179805F0EFF91090019922983D
:100B900005F0EAF90F900099229805F0E5F9039025
:100BA0000199179805F0E0F90290DDE90F1005F0C2
:100BB000E9F9A9F10401C9F800001B91DDE902106F
:100BC00005F0B9F91B99A9F1080908602098401EA1
:100BD00020907FF43BAE00BFD6F80080D7F800909D
:100BE0004146484605F0A7F902904146484605F0BF
:100BF000C9F90390D6F80490D7F8048049464046D6
:100C000005F099F900904946404605F0BBF901907E
:100C100060680F900146039805F08DF9D5F80490AF
:100C2000494605F0AFF983462068099001460198CE
:100C300005F0A8F92968059105F07DF98246099922
:100C4000029805F09FF9059905F09CF980460F99E7
:100C5000009805F097F9494605F094F90B900F9923
:100C6000039805F08FF9494605F065F90C9009994C
:100C7000019805F060F9059905F084F98146099914
:100C8000029805F058F9059905F055F93860616842
:100C9000009805F050F9696805F04DF978600A98F8
:100CA000D0E9007000905846394605F05DF9109083
:100CB0005046009905F058F90F905046394605F016
:100CC00053F907465846009905F04EF98246DDE98A
:100CD0000F1005F030F920605146384605F052F902
:100CE00060600D98D0E900474046214605F03CF988
:100CF000834639460B9805F037F9824621460B9812
:100D000005F032F904464046394605F02DF907460C
:100D10005146584605F00FF930603946204605F037
:100D200031F970600E98D0E9004621460C9805F024
:100D30001BF980464846314605F016F907464846F5
:100D4000214605F011F9044631460C9805F00CF9DE
:100D500006463946404605F0EEF828603146204602
:100D600005F010F9686027980423069942681E98D8
:100D700000F0B0F827980423069942681D9800F007
:100D8000A9F82798042306994268189800F0A2F859
:100D900027980699042342681A9829B0BDE8F04FB5
:100DA00000F098B82DE9F0410588984617460C46A2
:100DB0000646012A18D1201DB5B1083815F0010FDB
:100DC00004D050F8081F81F00041016069080BD081
:100DD00050F8082F491E82F0004240F8082B0268A4
:100DE00082F000420260F3D1B5F5807F1BD008DCB1
:100DF000102D13D0202D16D0402D19D0802D0DD0C0
:100E00001CE0B5F5007F13D0B5F5806F06D0B5F5C1
:100E1000006F08D0B5F5805F0AD00FE0214630465C
:100E2000FFF73EFB0AE021463046FFF765FC05E090
:100E3000294601232046726800F04CF8B8F1000FF3
:100E400004D0B1892046B268FFF700FA012F18BF1D
:100E5000BDE8F081284605F080F801464FF07E504D
:100E600005F072F80646002D08BFBDE8F081083C89
:100E700015F0010F0CD03146A06805F075F8A060A0
:100E8000E068314680F0004005F06EF8E06008341C
:100E90006D0808BFBDE8F0813146A06805F064F830
:100EA000A060E068314680F0004005F05DF8E06049
:100EB0003146206905F058F820616069314680F0BC
:100EC000004005F051F8606110346D1EE4D1BDE8BA
:100ED000F08100002DE9FF4FB3B00446349D289502
:100EE000ED08002606EB050A0AEB050909EB0508E3
:100EF00008EB050B0BEB05004719229078192A9097
:100F000054F83B00039054F836000290039905F022
:100F100012F80090DDE9020105F034F809902298FA
:100F200054F83000039054F83A000290039905F009
:100F300002F80590DDE9020105F024F8089054F864
:100F40003700039054F839000290039904F0F3FF3E
:100F50001590DDE9020105F015F814902A9854F86F
:100F60003000049054F838000390049904F0E3FF33
:100F70000290DDE9030105F005F81390159900983A
:100F800005F000F804901599009804F0D4FF009043
:100F90000299059804F0F6FF15900299059804F05F
:100FA000CAFF01460590009804F0C5FF44F83600DA
:100FB0000599009804F0E6FF44F83B0004EBCB00F1
:100FC0000D90406804EBC60B0390DBF80400029020
:100FD000039904F0B0FF0090DDE9020104F0D2FFB4
:100FE0000690229804EBC00016904068039004EB32
:100FF000CA000E9040680290039904F09CFF05908F
:10100000DDE9020104F0BEFF079004EBC7001A906F
:101010004068039004EBC90019904068029003995E
:1010200004F089FF1090DDE9020104F0ABFF0F909E
:101030002A9804EBC00018904068039004EBC800A5
:10104000179040680B90039904F075FF0290039984
:101050000B9804F097FF12901099009804F092FFFB
:1010600003901099009804F066FF0090029905988B
:1010700004F088FF10900299059804F05CFF014687
:101080000590009804F057FFCBF8040005990098EC
:1010900004F078FF01460D9841601099049804F01F
:1010A0004AFF44F839001099049804F06BFF44F8A3
:1010B00037001599039804F065FF014619984160BF
:1010C0001599039804F037FF01461A984160139967
:1010D000089804F057FFFE4F394604F045FF81465B
:1010E0001399089804F027FF394604F03DFF089053
:1010F0001299079804F046FF394604F035FF8346FD
:101100001299079804F017FF394604F02DFF079055
:101110004946099804F036FF04904946099804F0BE
:101120000AFF09900899149804F02CFF139008996D
:10113000149804F000FF14905946069804F022FF1A
:1011400003905946069804F0F6FE069007990F980A
:1011500004F018FF814607990F9804F0ECFE8346CF
:101160000146099804F0E7FE44F83A005946099808
:1011700004F008FF01462A9844F8301049460498C4
:1011800004F0D9FE0146229844F8301049460498EC
:1011900004F0F8FE44F838001499069804F0F2FEC2
:1011A00001460E9841601499069804F0C4FE014669
:1011B000189841601399039804F0E4FE01461698CC
:1011C00041601399039804F0B6FE014617984160F8
:1011D0002898064434988642FFF484AE082D3CBF1C
:1011E00037B0BDE8F08F00201D9001201B9036998C
:1011F0001D98359F08441D90DDF874804200161834
:1012000057F838700E97359F810001EB000C57F8A6
:1012100032700C97359F0CEB0003184457F836706A
:101220002097359F57F831701997359F57F83C70C4
:101230000B97359F57F833702597359F57F83070C7
:101240002997359F07EBC8077F681797359F07EBEE
:10125000C20207EBC10152681A9207EBC60207EB04
:10126000C00052681E924968189107EBCC011B9E82
:101270004968279107EBC3014968239140681C9096
:10128000771907EB050808EB050909EB050A0AEBD6
:10129000050B0BEB0500219028442A9054F83A00E6
:1012A000039054F836000290039904F044FE009035
:1012B000DDE9020104F066FE099054F83B0003905A
:1012C00054F837000290039904F035FE0590DDE9EB
:1012D000020104F057FE0890219854F83000039062
:1012E00054F838000290039904F025FE1590DDE9CA
:1012F000020104F047FE14902A9854F8300004903C
:1013000054F839000390049904F015FE0290DDE9C9
:10131000030104F037FE13901599009804F032FE93
:1013200004901599009804F006FE00900299059823
:1013300004F028FE15900299059804F0FCFD014682
:101340000590009804F0F7FD44F8360005990098E0
:1013500004F018FE059004EBCA002B90406803903F
:1013600004EBC600169040680090039904F0E3FD7A
:1013700002900399009804F005FE069004EBCB0060
:101380002D904068039004EBC7002C9040680090BB
:10139000039904F0D0FD0D900399009804F0F2FD3C
:1013A0000790219804EBC0002F904068039004EB55
:1013B000C8002E9040680090039904F0BCFD109086
:1013C0000399009804F0DEFD0F902A9804EBC0000A
:1013D00030904068129004EBC9003190406803904F
:1013E000129904F0A8FD00901299039804F0CAFD28
:1013F00012901099029804F0C5FD0390109902987C
:1014000004F099FD029000990D9804F0BBFD109036
:1014100000990D9804F08FFD0D901099049804F038
:101420008AFD00901099049804F0ACFD04900D9989
:10143000029804F080FD0146169841600D990298CB
:1014400004F0A0FD0D901599039804F09BFD029007
:101450001599039804F06FFD03900599199804F00D
:1014600083FD16900D99189804F07EFD15900D9946
:10147000199804F079FD0D900599189804F074FD01
:101480000590DDE9151004F056FD44F83A00059981
:101490000D9804F077FD01462B98416000990C9857
:1014A00004F062FD169002991A9804F05DFD8246E0
:1014B00002990C9804F058FD0D9000991A9804F0C8
:1014C00053FD05905146169804F035FD02E00000EA
:1014D000F304353F44F8380005990D9804F052FDA7
:1014E00001462E9841600499259804F03DFD8246FE
:1014F0000399239804F038FD80460399259804F059
:1015000033FD0D900499239804F02EFD059041467B
:10151000504604F010FD0146219844F8301005991A
:101520000D9804F02FFD01462F98416013990898FB
:1015300004F028FD844904F017FD804613990898AB
:1015400004F0F9FC804904F00FFD824612990798D7
:1015500004F018FD7C4904F007FD029012990798E9
:1015600004F0E9FC784904F0FFFC07904146099833
:1015700004F008FD04904146099804F0DCFC099051
:101580005146149804F0FEFC13905146149804F050
:10159000D2FC14900299069804F0F4FC039002998E
:1015A000069804F0C8FC069007990F9804F0EAFC2E
:1015B000824607990F9804F0BEFC804601460998C0
:1015C00004F0B9FC00904146099804F0DBFC099056
:1015D0005146049804F0AFFC08905146049804F07A
:1015E000D1FC04901499069804F0CCFC8046149920
:1015F000069804F0A0FC06901399039804F0C2FC2E
:1016000007901399039804F096FC039000990E98A4
:1016100004F0AAFC16904146179804F0A5FC8246F7
:1016200041460E9804F0A0FC0D900099179804F024
:101630009BFC80465146169804F07DFC44F8370028
:1016400041460D9804F09EFC01462C984160099992
:10165000299804F089FC824606991C9804F084FCC1
:1016600080460699299804F07FFC0D9009991C98F2
:1016700004F07AFC07464146504604F05CFC014603
:101680002A9844F8301039460D9804F07BFC014646
:101690003098416008990B9804F066FC80460799E1
:1016A000279804F061FC824607990B9804F05CFCD3
:1016B0000D900899279804F057FC0746514640467C
:1016C00004F039FC44F83B0039460D9804F05AFC0C
:1016D00001462D9841600499209804F045FC83460A
:1016E00003991E9804F040FC82460399209804F068
:1016F0003BFC804604991E9804F036FC0746514690
:10170000584604F018FC44F839003946404604F0C5
:1017100039FC014631984160289806443498864245
:10172000FFF4AEAD1B98401C1B9085423FF65FADA9
:1017300036984FF6FF7101EAC0003690072D3FF64C
:10174000CEAB37B0BDE8F08FF304353F53EA020C5F
:1017500000F069802DE9F04B4FF00006002B1FBF11
:10176000B3FA83F503FA05F424FA05F65E4012BFD6
:101770001643B2FA82F502FA05F4C5F120051EBF40
:1017800022FA05FC44EA0C04203556EA044C4FEAE0
:10179000144418BF641C4FF000084FF00009904239
:1017A00071EB030C39D3002919BFB1FA81F701FAA3
:1017B00007F6B0FA80F700FA07F6C7F120071EBF58
:1017C00020FA07FC46EA0C062037B6FBF4FCA7EB30
:1017D0000507103F07F01F0BCBF120062CFA06F689
:1017E0000CFA0BFB44BFB3460026202FA4BF5E4675
:1017F0004FF0000B5BEA060C08BF4FF0010B19EB32
:101800000B0948EB0608ABFB027C06FB02CC0BFB8A
:1018100003CCC01B71EB0C01C1E70B4602464146ED
:101820004846BDE8F08B13B54FF000004FF00001C3
:10183000AFF30080BDE81C40704710B5431C02E0C8
:1018400010F8011B71B18107FAD14FF0013202C8C3
:101850008C1A8C4314EAC211F9D0C01A0A0603D0BC
:10186000C01E10BDC01A10BD0A0401D0801E10BDDC
:101870000902FCD0401E10BD4FF0000200B5134617
:1018800094469646203922BFA0E80C50A0E80C50A0
:10189000B1F12001BFF4F7AF090728BFA0E80C5051
:1018A00048BF0CC05DF804EB890028BF40F8042B4A
:1018B00008BF704748BF20F8022B11F0804F18BFB7
:1018C00000F8012B704770477047704710B500F063
:1018D00009F8006810BD10B5044600F003F8046074
:1018E00010BD000000487047F0010020004870471C
:1018F000F00100207546FFF7F9FFAE460500694686
:10190000534620F00700854618B020B5FEF722FDAB
:10191000BDE820404FF000064FF000074FF00008F0
:101920004FF0000BAC46ACE8C009ACE8C009ACE82D
:10193000C009ACE8C00921F007018D46704710B519
:101940000446AFF300802046BDE81040FEF7EDBC32
:1019500001491820ABBEFEE7260002007047014691
:10196000886B036C026C13F0500F07D0D20648BF8F
:1019700000F05FB9806BC26C0846104742F40071FA
:10198000016401688A6812F0405F1CD1027E002A5F
:1019900018BF00F01DB9CA6A12F4700F1CBF8A6824
:1019A00012F4806F0FD14A6822F020024A60016C65
:1019B00021F480710164016C11F4805F02BF016C3D
:1019C00041F00101016400F003B9806B4021016422
:1019D000416C41F00401416400F02BB9806B00F0D0
:1019E00027B9FEE7002070470020704710B5194C5A
:1019F00005490022204602F0D0FC0449204602F0AE
:101A0000C2FC002010BD00BF0C4400200C40002090
:101A100010B5104C0146204602F0B5FC204602F0FD
:101A200095FC002010BD00BF002070470A4601460B
:101A30000848D0F8BC02D0F8140208B10120704761
:101A400010B5044C204602F0A8FC2046BDE810402A
:101A500002F00BBD104C0020EC4800F073BA00BF40
:101A6000014800F06FBA00BFA04F0020014800F00D
:101A700069BA00BF404F0020014800F063BA00BFC0
:101A80000050002001686FF00F02182352FA81F213
:101A9000B2FBF3FC07A35F2A13F80CC040F2FF333C
:101AA00021EA030188BF41F00401C0E9161C084681
:101AB000704700BF00061016000610167047EFF3BF
:101AC000108072B6FEE7000078B50022009290F810
:101AD0003C20012A01D1022148E0012280F83C206B
:101AE0000B689AB20A2B4FEA420212FA83F205D32C
:101AF000D0F800E01E3A0EF10C0503E0D0F800E04B
:101B00000EF110052B6807249440A3432B608B68CB
:101B100003FA02F22B681A432A604C68934E062C93
:101B200005D804EB84030EF134025C1F0CE004EBD7
:101B3000840C0C2C04D80EF13002ACF1230403E029
:101B40000EF12C02ACF1410415681F23A34025EAD5
:101B5000030313600B881568A3402B431360A6F59D
:101B60004172964505D0002180F83C10C8B201B002
:101B700070BD096811291CBF144A91420AD012296C
:101B8000F1D1316821F400013160316841F4800104
:101B90003160E8E7326822F480023260326842F451
:101BA00000023260094A9142DDD1E0490968E04A09
:101BB000B1FBF2F101EB8101490001E0009901392B
:101BC000009100990029F9D1CDE700BF1200001063
:101BD0000068D849884218BF70471148114A4FF031
:101BE000000C002304300BE032F81310013300EE38
:101BF000101AB8EE400A00ED010AC0F800C0083023
:101C0000B3F5806FF0D180B5074801214FF48062B1
:101C1000C1600648034900F0FDF8BDE88040704708
:101C2000E80B0020E8030020000000205002002004
:101C30007047704710B50446002C42D0206C30B974
:101C4000204600F09BF80020606484F83C00206C83
:101C500010F0100F37D1206C41F20211884340F090
:101C6000020020644148016821F44031016061684C
:101C70000268114301602068416821F4807141606D
:101C80002169426842EA01214160416821F04071C6
:101C90004160A168426811434160816821F400619C
:101CA0008160E168826811438160A16A826822F0E4
:101CB0007062826082682E4B994206D122F04051B8
:101CC0000CE0012010BD01204CE0114381608168CF
:101CD00021F040518160E16A82681143816081682E
:101CE00021F002018160217E826842EA4101816027
:101CF00094F8202041686AB141F400614160416874
:101D000021F460414160616A1A4A02EB4131426844
:101D1000114301E021F400614160C16A21F47001C6
:101D2000C162E169144A02EB0151C26A1143C16206
:101D3000816821F40071816094F83010826842EA71
:101D400041218160816821F48061816061698268DC
:101D500042EA81210122816000206064216C62F3EB
:101D600001012164002184F83C1010BD04230140CE
:101D70000100000F00E0FFFF0000F0FF70B586B02B
:101D8000044601A81421FFF777FD216869488142C4
:101D900037D1002600F5604000961B494A6942F49D
:101DA00080724A614A6902F480720092009A009639
:101DB0000A6842F001020A60096801F0010100911D
:101DC00000990321CDE9011101A9039600F074FAED
:101DD0000E4D0F484FF480614FF400624FF40053F2
:101DE000C5E9000605F11000C5E902664EC0C5E967
:101DF0000866284600F066F908B1FFF760FEA563A3
:101E0000AC6306B070BD00BF30380240E04E002029
:101E1000106402407CB50446002013460A46019037
:101E200094F83C00012801D102207BE0012084F8D5
:101E30003C002168886810F0010F11D1886840F0DB
:101E4000010088609E480068394DB0FBF5F000EB5A
:101E5000400001E001980138019001980028F9D173
:101E6000886810F4807F1EBF886820F480708860C6
:101E70008D68206C15F0010F07D140F01000206430
:101E8000606C40F0010060644BE040F201754FF07F
:101E9000000CA84340F480702064486810F4806F00
:101EA0001FBF206C012565F30D302064206C214E8E
:101EB000214D10F4805F4FF000001CBF606C20F0DB
:101EC0000600606484F83CC0A06BC5631B4D0564CC
:101ED0001B4DC5646FF022050D604D6845F08065AF
:101EE0004D608D6845F480758D604C3100F080F94F
:101EF000D6F80413206811F01F0F0AD0B04210D199
:101F0000B06810F0405F0CD1B06840F08040B06025
:101F100007E0816811F0405F03D1816841F08041A2
:101F200081600020C0B202B070BD00BF94000020EC
:101F300040420F00002001405F190008DD19000831
:101F4000CB190008F8B504460020082100905C4831
:101F50000568D4E916603768814039420DD022689F
:101F6000136813F0040F08D0136823F00403136000
:101F7000B160616D41F0010161650121814039422B
:101F800009D02268526912F0800F1FBFB160616DE5
:101F900041F00201616504218140394209D0226883
:101FA000126812F0020F1FBFB160616D41F00401B1
:101FB000616510218140394219D02068026812F011
:101FC000080F14D0B1600268016812F4802F06D1A6
:101FD000C9055EBF016821F00801016001E0080346
:101FE00001D4216C00E0A16C09B120468847E16D65
:101FF000202000FA01F23A423CD02068036813F036
:10200000100F37D0B26094F835300268052B19D123
:1020100022F016020260426922F080024261226CC4
:102020000AB9A26C1AB1026822F0080202603F20CD
:102030008840B060012084F83500002084F8340026
:10204000216D39E0016852030CD4C9050ED4016832
:1020500021F010010160012084F83500002084F88F
:10206000340003E0080301D4616C00E0E16B09B1C6
:1020700020468847606D10B3606D10F0010F1AD0D4
:1020800005214FF4165084F83510B5FBF0F02168A7
:102090000A6822F001020A60009A0132824200922C
:1020A00003D80A6812F0010FF6D1012084F8350038
:1020B000002084F83400E16C09B120468847F8BD5F
:1020C000940000202DE9F041044600F0C3F90546D4
:1020D000002C4DD0022084F83500002084F8340014
:1020E0002068016821F00101016005E000F0B2F90B
:1020F000401B05283ED82068016811F0010FF5D17A
:1021000001683A4AD4E9013504F10C0801EA020CED
:1021100098E8C201D4E9072E43EA0C032B43194384
:102120003143394341EA08011143626A41EA0E032F
:10213000042A23D1D4E90B1719433943016050F81D
:10214000141FD4E90A5E21F00701BEF1000F41EA35
:10215000020145EA010C18D0B8F5005F26D0B8F1AD
:10216000000F38D1022D39D0012D2ED0B5B30CE09F
:10217000012218E003232021032222E0036050F80B
:10218000141F21F0070141EA020CC0F800C02046EC
:10219000FFF778FCE16D3F22012302FA01F10022F2
:1021A000816000210DE0D0B2BDE8F081032DECD8B4
:1021B0000123402102EB85060122DFE805F0020F32
:1021C0000206616584F83530EDE7AEF1C071B1FA11
:1021D00081F1490904E0032D04D3D6D1CEF3006187
:1021E0000029D2D0012340210122EAE73F8010F0EC
:1021F00010B590F834C0BCF1010F46D04FF0010C7F
:10220000D0F858E080F834C090F835C0BCF1010F28
:1022100038D14FF0020C80F835C04FF0000CC0F8F8
:1022200054C0D0F800C0DCF8004024F48024CCF87E
:102230000040CCF804308368402B0B4608BF13469F
:10224000CCF8083008BF0A46CCF80C203F22C16DFC
:1022500002FA01F1CEF80810DCF8001041F0160186
:10226000CCF80010006C28B1DCF8000040F0080049
:10227000CCF80000DCF8000040F00100CCF80000D1
:10228000002003E0002180F834100220C0B210BD0D
:1022900070B505466E1C00F0DDF804461EB18D4891
:1022A0000078054401E04FF0FF3500F0D3F8001B43
:1022B000A842FAD370BD00BF2DE9FC4F5B4A072747
:1022C0004FF0010E4FF0030A4FF0000B4FF00008E3
:1022D000904208BF0427564A02444FEAB223042B17
:1022E00038BF4FEAB22700970027102F08BFBDE87C
:1022F000FC8F0A680EFA07F4224200F090804B68C7
:1023000003F00302551E012D15D8D0F808C00AFAB3
:1023100008F52CEA050CCD6805FA08F545EA0C0528
:102320008560C3F3001505FA07FC4568A54345EA37
:102330000C05456001E0032A1DD0C6680AFA08F5BD
:10234000022A26EA05068D6805FA08F546EA05061A
:10235000C66010D1374D0BF01C020F23934005EAE5
:1023600057060644356A25EA03030D6905FA02F2A9
:102370001A4332624B68056803F003020AFA08F652
:1023800013F4403F02FA08F225EA060642EA060282
:10239000026044D000220192274A136843F480432C
:1023A000136027F00303126802F480420192234A6B
:1023B000019E234D0BF00C0603EB02090F2359F885
:1023C00005C003FA06FE009B2CEA0E0C03FA06F683
:1023D0004FF0010E46EA0C0649F8056013684E6896
:1023E000A34316F4803F18BF234316F4003F136045
:1023F000536823EA040318BF234316F4801F536075
:10240000936823EA040318BF234316F4001F936064
:102410000C4A136823EA040318BF234313600BF12B
:10242000040B08F1020801375FE700BF001002400B
:102430000000FEBFFCFFFF7F44380240003C01402B
:1024400008FCFFFF0C3C0140002A08BF0904816121
:10245000704700001F488068704700BF1D48017822
:10246000826811448160704780B50B48016841F46F
:1024700000710160016841F480610160016841F40C
:1024800080710160032000F07FF80F2000F006F853
:1024900000F024F8002080BD003C024070B50D4ED5
:1024A00004464FF47A713078B1FBF0F00A490968BC
:1024B000B1FBF0F001F05AF901250F2C08D838B91A
:1024C0004FF0FF3021460022002500F031F8746003
:1024D000284670BD6C0000209400002082B00020CF
:1024E00001900B494A6842F480424A604A6802F40B
:1024F00080420192019A0090086840F08050086084
:10250000086800F080500090009802B0704700BF4B
:1025100040380240002808DB00F01F01012240097A
:1025200002FA01F1014A42F82010704700E100E090
:10253000B0B5144C1A4D00F00F03B0F1FF3FA3F1FA
:1025400004032B4403F10C03C8BF03192868C0F32C
:102550000220051DC41E80F00700072D4FF0010565
:1025600038BF0024042828BF042005FA00F00138F1
:10257000084005FA04F10F31A04011400843000162
:102580001870B0BD00E400E005494FF6FF030A688B
:102590001A4060F30A22034810430860704700BFE6
:1025A0000CED00E00000FA05704700684162002071
:1025B0007047D0F800C00029DCF824001BD080B59B
:1025C000DCF82830A1F1010E00EB1343002006E0F7
:1025D0000CEB81010130D1F8041103EB1143C1B2BE
:1025E0008E45F5D80CEB8E0043EA0241C0F8041189
:1025F000BDE8804003E040EA0240CCF8280000201B
:102600007047D0F8040402F006B9C1EBC10200EB38
:102610008202D0F80404926C02F072B8C1EBC102DD
:1026200000EB8202D0F80404D2F8082202F0BBB812
:10263000D0F8040402F0F1B810B50A46044602F0DE
:102640000F0012F0800FC0EBC00104EB810303F117
:102650003C0108BF03F5FE71C2F3C0124A70087056
:1026600094F8BC03012801D1022008E0012084F87D
:10267000BC03206802F04EFD002084F8BC03C0B209
:1026800010BDB0B504460A46616802F00F008842EA
:1026900001D901251FE0C0EBC00112F0800F4FF0FF
:1026A000000504EB810303F13C0108BF03F5FE7153
:1026B000C2F3C0124A708D70087094F8BC030128F0
:1026C00001D1022507E0012084F8BC03206802F054
:1026D000D9FE84F8BC53E8B2B0BD01F00F01C1EBE4
:1026E000C10100EB8100D0F81402704770B50C46B0
:1026F000064604F00F0014F0800CC0EBC00106EB9E
:10270000810505F13C0108BF05F5FE71C4F3C01554
:10271000BCF1000F4D7008708A60CB7018BFC88084
:10272000022B04BF0020087196F8BC03012801D1D8
:10273000022008E0012086F8BC03306802F03CFC6F
:10274000002086F8BC03C0B270BD80B501F00F0C4C
:10275000CCEBCC0100EB810E0021CEF80822CEE9B3
:1027600084318EF8FD118EF8FCC10EF5FE710369FF
:10277000012B08BFCEF80C22DAB2BCF1000F0068C2
:1027800002D002F0B5FE01E002F0DEFD002080BDC7
:10279000B0B5044601F00F050120626895422AD8C1
:1027A000C1EBC10211F0800F04EB8203C5EBC5023F
:1027B00004EB820202F13C0208BF03F5FE72C1F392
:1027C000C01151709070157094F8BC03012801D1AC
:1027D000022010E00120114684F8BC03206802F0BA
:1027E0006AFE2DB9217C206804F5717202F01EFE8C
:1027F000002084F8BC03C0B2B0BD80B501F00F0C5E
:10280000CCEBCC0100EB810E0021CEF84820CEE9C4
:10281000143101218EF83D10714601F83CCF036957
:10282000012B08BFCEF84C20DAB2BCF1000F0068D3
:1028300002D002F05DFE01E002F086FD002080BDC6
:102840002DE9F04F87B0044620680146059102F05B
:1028500050FF10B107B0BDE8F08F206802F075FF9F
:102860000028F7D0206802F070FF0146206811F0C0
:10287000020F1EBF416901F00201416102F065FFD4
:1028800001462068069411F0100F42D0816921F0B2
:10289000100181610598046AC4F3434004F00F05F8
:1028A00006281ED002282ED147F6F07004402AD008
:1028B0000699C5EBC50001EB8005D5F80812C4F3F5
:1028C0000F12059802F045FFD5F8080200EB14102E
:1028D000C5F80802D5F8140200EB1410C5F814026C
:1028E00011E0069E0598082206F5717102F031FF8D
:1028F000C5EBC50006EB8000D0F81412C4F30A1231
:102900001144C0F8141206980068816941F0100162
:10291000816102F01AFF10F4002F00F0C680069DBE
:10292000286802F0F1FE064605F5717005F5057799
:102930004FF000094FF430680390B3E0F00700F067
:10294000AB8006985FFA89FB5946006802F0F5FEF5
:10295000DD4D82461AF0010F61D0059801210495E2
:1029600040448160069C206808EB0001036C8A6883
:102970002569012D28D1049D100730D4900647D435
:1029800012F0280F4BD1AB4202D312F400402BD1EE
:1029900057F8100C0969B8F5306F6FF3DF41A0EB01
:1029A0000101396057F80C1C084447F80C0C069DCF
:1029B00004BFD5F81002002804D12868039A012129
:1029C00002F034FD28461FE0049DFF35AB420FD1D5
:1029D000100420D4900644BF2020886013E0AB424E
:1029E0001DD312F400401AD04FF40040886016E066
:1029F000B8F5306F07D10699D1F8101219B9039ABA
:102A0000002102F013FD06985946FFF707FE05E086
:102A10002020886003E04FF400408860049D5FEA56
:102A20000A7023D505980821BB46013D40448160CA
:102A30000698016808EB01000C6C816811F4004FE6
:102A400004D0AC4284BF4FF400418160069800F08E
:102A500000FBAC425F4609D906980069012805D100
:102A60000698039A0121006802F0E0FC5FEACA6060
:102A700041BF05984044102181605FEA8A6041BFF0
:102A800005984044202181605FEA8A4041BF059853
:102A900040444FF4005181601C3708F1200876084B
:102AA00009F10109002E7FF449AF069C206802F06D
:102AB0004CFE10F4802F00F0B580206802F01DFE5F
:102AC000064604F5717000230190059800F5106921
:102AD000CDF80890A3E0F00700F09F802068DFB2F7
:102AE0000493394602F017FE054615F0010F2AD06F
:102AF0000599049B4FF0010C0A4603F00F00D2F831
:102B000034180CFA00F021EA0000C2F8340809EB8E
:102B10004310C0F808C02069012810D1C3EBC300DE
:102B2000002B04EB8000D0E911121144816406D11E
:102B3000206D20B92068019A012102F077FC20461F
:102B40003946FFF762FD049B280742BF09EB43109B
:102B500008218160E80642BF09EB43101021816023
:102B6000680642BF09EB431040218160A80742BFBD
:102B700009EB43100221816028064ED5C3EBC30048
:102B800004EB800AD3465BF8500FD84658F8042F60
:102B9000904242D303965AF8441F2568841A8C4207
:102BA0000AF1040688BF0C4605EB431101F51069D4
:102BB00018E0069CDAF800303168247C0094841A0E
:102BC00028463A469C4288BF1C46A3B202F0A8FEA3
:102BD000306820443060D8F800000219C8F800209E
:102BE000DBF80000D9F8181030B1904204D9E31C8A
:102BF00089B29B089942DCD2069CDDE90296049BCF
:102C000090420AD803F00F00012101FA00F0D5F834
:102C1000341821EA0000C5F8340876080133002E84
:102C20007FF459AF206802F090FD002801DB206896
:102C30001BE005980146D1F8040820F00100C1F816
:102C4000040894F8F403012807D10020002184F837
:102C5000F4032046FFF7A8FC02E0204600F0DCF970
:102C60002068416901F00041416102F06EFD10F4FD
:102C7000006F01D120680DE00598D0F8080810F029
:102C8000010F1CBF204600F00BFA2068416901F4D7
:102C90000061416102F059FD10F4805F01D12068AC
:102CA00058E0059D1021D5F8040820F00100C5F872
:102CB0000408206802F0F4FC626805F5106105F56F
:102CC00000604FF67F331AE00B30544F8B60013AAF
:102CD0000F6827F400170F600F6847F000670F6058
:102CE000C1F80832D1F8007227F40017C1F8007259
:102CF000D1F8007247F00067C1F800722031002A55
:102D0000E4D1C16941F00111C161216B41B1D0F839
:102D1000841041F00B01C0F8841000F1440106E07A
:102D2000416942F22B021143416100F110010A682E
:102D300042F00B020A6004F57172016821F4FE6131
:102D40000160217C206802F071FB2068416901F478
:102D50008051416102F0F9FC0146206811F4005FE6
:102D600015D002F067F9206802F0B4FCE060256835
:102D700000F044FA227B0146284602F059FD204625
:102D800000F038F92068416901F40051416102F016
:102D9000DCFC10F0080F01D1206807E0204600F0AD
:102DA0003FF92068416901F00801416102F0CDFC62
:102DB00010F4801F01D1206808E02046002100F0B7
:102DC00038F82068416901F48011416102F0BDFCCE
:102DD00010F4001F01D1206808E02046002100F017
:102DE0002CF82068416901F40011416102F0ADFC4A
:102DF00010F0804F01D1206807E02046FFF701FC6A
:102E00002068416901F08041416102F09EFC10F0B0
:102E1000040F3FF41FAD20682546446814F0040FEA
:102E200003D02846FFF704FC28684168214341602D
:102E300010E5D0F8040401F046BDD0F8040401F018
:102E400056BD2DE9F04F8BB00446002C00F0808079
:102E5000256894F8BD0328B9002084F8BC032046F7
:102E600000F086F8032084F8BD03E86B10F4807F3F
:102E700004BF00202061206802F060FA206804F19D
:102E8000040E04F11C0A0A909EE80E589AE8C00746
:102E9000D4E90C50CDE9085003A88DE8005880E82B
:102EA000C0070A9802F0D6F800284ED12068002109
:102EB000002502F07AFC6168012000220FE0C3EBDC
:102EC000C30704EB870787F83D0087F83C20A7F885
:102ED000423087F83F50C7E911553D650132D3B202
:102EE0009942ECD8002000220EE0C3EBC30304EBB0
:102EF000830383F8FD0183F8FC2183F8FF01C3E914
:102F00008100C3F810020132D3B29942EDD8A06813
:102F1000226804F1140E04F1240A0A90D4E903375C
:102F20009EE840589AE80007D4E90C50CDE90850D3
:102F300002A8CDE9007680E8005805A880E80007DF
:102F400010460A9A02F044F938B1022084F8BD0311
:102F5000012528460BB0BDE8F08F0025012084F83C
:102F6000385084F8BD03206802F024F9F1E700002E
:102F7000B0B586B0044601A81421FEF77DFC206898
:102F8000B0F1A04F2FD1002501A90095174C206862
:102F900040F001002060206800F0010000900098DF
:102FA0004FF4C05001900220CDE9020503200490A7
:102FB0000A2005900E48FFF77FF960680021002283
:102FC00040F0800060600095606940F4804060617E
:102FD000606900F48040009000984320FFF7A8FA51
:102FE0004320FFF797FA06B0B0BD00BF303802406B
:102FF0000000024010B50446E068022818BFFEF742
:103000005EFDD4F80404012101F0F6FCD4F80404B8
:10301000BDE8104001F0A2BCD0F8040401F0CEBC21
:10302000D0F8040401F0D4BC10B5044694F8BC03F5
:10303000012801D102200AE0012084F8BC0384F8B1
:103040003810206802F0E2FB002084F8BC03C0B214
:1030500010BDD0F8042400F57171104601F0E0BCF9
:1030600010B5044694F8BC03012801D1022015E0F4
:103070000121206884F8BC13A16A012906D1A16945
:1030800001291EBF816B41F48031816302F0ECFAAB
:10309000206802F081F8002084F8BC03C0B210BDA3
:1030A00010B50446D4F8040401F00EFD2068D0F8F1
:1030B000001E41F00101C0F8001E206A20B1034843
:1030C000016841F00601016010BD00BF10ED00E095
:1030D0002DE9F04104468846002C00F08480444FDE
:1030E000D7F8000400F00700404507D287F80084B5
:1030F000D7F8000400F00700404574D1206810F0B4
:10310000020F11D0410742BFB96841F4E051B960E4
:10311000010742BFB96841F46041B960B968A2686B
:1031200021F0F0011143B960C0072BD06068811E07
:10313000022904D2396811F0007F0BD153E0012835
:1031400004D1396811F4003F04D14CE0396811F022
:10315000020F48D0B96821F003010843B860FFF7B7
:1031600079F9064641F28835B868616800F00C00CC
:10317000B0EB810F06D0FFF76DF9801BA842F3D9A1
:10318000032031E0D7F8000400F00700404507D9DC
:1031900087F80084D7F8000400F00700404522D1EA
:1031A000206810F0040F05D0B968E26821F4E051FE
:1031B0001143B960000706D5B868216920F4604062
:1031C00040EAC100B86000F037F8B968094AC1F3B5
:1031D0000311515CC8401549086007480068FFF7B3
:1031E0005DF9002000E00120C0B2BDE8F08100BF21
:1031F00000380240B88D0008700000200B480068BD
:10320000704700BF09480B4A006809490968C1F3C3
:103210008221515CC84070470448064A006804494E
:103220000968C1F34231515CC840704794000020E6
:1032300008380240C88D000810B5F04C606800F0F6
:103240000C011248082904D0042904BF104810BDFD
:1032500010BD226820680E49002310F4800F02F090
:103260003F0204BF42F20041C0F2F4012068C0F303
:103270008810A1FB0001FEF769FA21680222C1F360
:10328000014102EB4101B0FBF1F010BD0024F4005C
:1032900040787D012DE9F84F8246BAF1000F00F029
:1032A00064819AF80000D44ED44FC0074AD07868A1
:1032B00000F00C00042807D1306810F4003F41D022
:1032C000DAF80400F0BB50E1786800F00C00082840
:1032D00003D1386810F4800FEED1DAF80480B8F525
:1032E000803F06D03068B8F5A02F13D140F480207D
:1032F0003060306840F480303060FFF7ABF805464E
:10330000306810F4003F1DD1FFF7A4F8401B64287B
:10331000F6D9C3E020F480303060306820F480209B
:103320003060FFF797F80546B8F1000FE8D1306834
:1033300010F4003F06D0FFF78DF8411B03206429ED
:10334000F5D913E19AF80000AD4C800731D57868C3
:1033500010F00C0F1CD0786800F00C00082804BF97
:10336000386810F4800F13D0DAF80C00002800F051
:10337000978001202060FFF76DF80546306810F057
:10338000020F0ED1FFF766F8401B0228F6D985E040
:10339000306810F0020F1CBFDAF80C00012840F072
:1033A000E4803068DAF8101020F0F80040EAC1003C
:1033B00030609AF80000000722D5DAF8140078B1DE
:1033C0000120C4F8800EFFF745F80546386F10F06D
:1033D000020F15D1FFF73EF8401B0228F6D95DE039
:1033E0000020C4F8800EFFF735F80546386F10F05E
:1033F000020F05D0FFF72EF8401B0228F6D94DE04A
:103400009AF80000A34640077CD5F86B4FF00008FF
:1034100010F0805F0CD1CDF800804FF00108F86B00
:1034200040F08050F863F86B00F0805000900098F6
:103430007448305810F4807F12D17248315841F4EA
:1034400080713150FFF706F805466E48305810F489
:10345000807F05D1FEF7FEFF401B0228F5D91DE055
:10346000DAF80890B9F1010F06D0F86EB9F1050F3E
:1034700027D140F00400F866F86E40F00100F866CD
:10348000FEF7E8FF054641F28834F86E10F0020FAF
:1034900031D1FEF7DFFF401BA042F6D9032065E0E3
:1034A00000202060FEF7D6FF0546306810F0020FBE
:1034B0003FF47FAFFEF7CEFF411B03200229F4D972
:1034C00054E020F00100F866F86E20F00400F86681
:1034D000FEF7C0FF0546B9F1000FD4D141F288399B
:1034E000F86E10F0020F06D0FEF7B4FF411B032068
:1034F0004945F5D93AE0B8F1010F02BFF86B20F069
:103500008050F863DAF81840002C72D0786800F028
:103510000C0008282ED1012C27D03868DAF81C10AE
:1035200000F480028A4220D1DAF8201000F03F0235
:103530008A421AD1DAF8242047F6C0710140B1EB73
:10354000821F12D1DAF828104FF6FF72C903914397
:1035500000F44032A1F580318A4206D1DAF82C100D
:1035600000F07060B0EB016F43D00120C0B201B039
:10357000BDE8F08F0020CBF86000FEF76BFF05463A
:10358000022C0BD15C46306810F0007F11D0FEF7A2
:1035900061FF411B03200229F5D9E7E7306810F0ED
:1035A000007F26D0FEF756FF411B03200229F5D9E4
:1035B000DCE70AF11C052FCD0843D90340EA82104D
:1035C0004FF6FF72914340EA0560A1F58031084350
:1035D000386001202066FEF73DFF0446306810F099
:1035E000007F06D1FEF736FF011B03200229F5D923
:1035F000BCE70020BAE700BF0038024004380240B0
:10360000000047420038FEFF70B504464CB1D4F8C4
:1036100024C0BCF1000F06D00021216104F1140187
:1036200007E0012550E06168B1F5827F03D004F125
:103630001C0100220A6000254FF0000EA56294F8DC
:10364000511041B9204684F8505000F03FF8D4E9B9
:1036500009C101F4005E022284F851202268136837
:1036600023F040031360D4E90130D4E9031603F4D6
:10367000827300F4044001F400611843084306F02B
:1036800002010843616901F001010843A16901F4E5
:1036900000731843E36903F038031843236A03F007
:1036A0008003184340EA0E001060042000EA114035
:1036B0000CF0100108435060D06920F40060D06124
:1036C0000120656584F85100284670BD70B586B04C
:1036D000044601A81421FEF7CFF821681F48814253
:1036E0003AD1002600F5504000961D494A6942F43F
:1036F00080524A614A6902F480520092009A009610
:103700000A6842F001020A60096801F001010091B3
:103710000099A02101910221CDE902160321049113
:103720000521059101A9FEF7C7FD0E4D0E484FF08A
:10373000C06140224FF4806385E8470005F1140022
:1037400014212B61FEF798F82846FEF7BBFC08B160
:10375000FEF7B5F9A564AC6306B070BD003001405A
:1037600030380240404F002058640240411E002083
:10377000B0EB116F1CBF01207047044AF023516069
:1037800003490B70072190601160704710E000E062
:1037900023ED00E090F83C300222012B2FD010B531
:1037A000012380F83C3080F83D200268D2F804E024
:1037B000D2F808C00C68B2F1804F2EF0700343EAD3
:1037C00004035360BDE810400ED0544B9A421CBF16
:1037D000C14B9A4208D0524B9A421CBF514B9A425D
:1037E00002D0514B9A4204D149682CF0800319430E
:1037F00091600121002280F83D1080F83C20D0B279
:10380000704700BF10B5044634B394F83D0028B9A2
:10381000002084F83C00204600F020F80220211D02
:1038200084F83D00206800F019FB012084F8460070
:1038300084F83E0084F83F0084F8400084F841009A
:1038400084F8420084F8430084F8440084F845007A
:1038500084F83D00002010BD012010BD83B0016838
:1038600017489D4A914211D02C4A91421AD0B1F189
:10387000804F22D100210291016841F001010160D5
:10388000006800F001000290029816E0002100910B
:10389000016841F004010160006800F0040000903C
:1038A00000980AE000210191016841F002010160E5
:1038B000006800F002000190019803B0704700BF5B
:1038C0004038024090F83D1001291CBF012070478C
:1038D000022180F83D100068C168B0F1804F41F0CE
:1038E0000101C1600ED00D4988421CBF7A4988424F
:1038F00008D00B4988421CBF0A49884202D00A49B5
:10390000884204D1816801F00701062903D00168CB
:1039100041F0010101600020704700BF0004004039
:10392000000C0040004001400000014010B504467A
:10393000022094F83C20012A70D001224FF67773C0
:1039400084F83C2084F83D00206882689A438260B5
:103950000A6812B3102A20D0202A18BF302A1CD09F
:10396000402A21D0502A2BD0602A35D0B2F5005FF2
:103970003ED0B2F5805F4AD0702A51D1D1E90123FF
:10398000C9681A4342EA0121826822F47F42114346
:103990008160816841F0770138E0816821F077012A
:1039A000114341F0070131E04B68CA68194600F045
:1039B00057FB2068816821F0770141F0470125E03D
:1039C0004B68CA68194600F04BFB2068816821F0FB
:1039D000770141F0570119E04B68CA68194600F0B9
:1039E00050FB2068816821F0770141F067010DE00C
:1039F000D1E90123C9681A4342EA0121826822F40D
:103A00007F4211438160816841F4804181600020E0
:103A1000012184F83D10002184F83C10C0B210BD93
:103A20000120F5E72DE9F04186B0044601A81421F4
:103A3000FDF722FF2168274CAF48274A91422FD03B
:103A4000B1F1804F43D1002601AD4FF002080127AC
:103A50000096016841F001010160016801F0010177
:103A6000009100990096016841F002010160294629
:103A7000006800F002000090009848F20C000190ED
:103A8000A4F58060CDE9028604960597FEF714FC44
:103A900008202946CDE90108CDE90366059713E022
:103AA00000210091026842F002020260006800F00A
:103AB0000200009000984FF4707001900220CDE950
:103AC0000201CDE9041001A92046FEF7F5FB06B07E
:103AD000BDE8F0810004024000080040B0B5044693
:103AE0000D4694F83C00012801D1022041E04FEA44
:103AF000B2010120032984F83C0037D8DFE801F047
:103B0000020A12222068294600F0F8F9206850F8CD
:103B1000181F0EE02068294600F01CFA206850F8B3
:103B2000181F16E02068294600F044FA206850F873
:103B30001C1F41F008010160016821F004010160CF
:103B400029690FE02068294600F064FA206850F8DF
:103B50001C1F41F400610160016821F48061016073
:103B6000296909020268114301600020002184F8DC
:103B70003C10C0B2B0BD10B5044634B394F83D005B
:103B800028B9002084F83C00204600F020F80220EC
:103B9000211D84F83D00206800F060F9012084F8C0
:103BA000460084F83E0084F83F0084F8400084F822
:103BB000410084F8420084F8430084F8440084F80B
:103BC000450084F83D00002010BD012010BD704765
:103BD00010B5044644B394F83D0028B9002084F899
:103BE0003C00204600F022F8242084F83D002068A4
:103BF000C16821F40051C160204600F053FA2068EA
:103C0000016921F490410161416921F02A0141617A
:103C1000C16841F40051C16000202021206484F873
:103C20003D1084F83E1010BD012010BD2DE9F04379
:103C300087B0044602A81421FDF71EFE21682D4816
:103C4000814254D1002600F5704001962A494A6904
:103C500042F010024A614A6902F010020192019A90
:103C600001960A6842F001020A60096801F0010148
:103C7000019101994FF4C06102910221CDE903162F
:103C8000032105910721069102A9FEF715FB1B4DA3
:103C90001B4F4FF000694FF48068142105F11400A8
:103CA000C5E90079C5E90266C5F81080FDF7E4FDB5
:103CB0002846FEF707FA08B1FDF701FFA563AC63DC
:103CC000104D07F178004021C5E9000905F1080011
:103CD00080E8420105F114001421FDF7CDFD2846CE
:103CE000FEF7F0F908B1FDF7EAFE6563AC6307B0D3
:103CF000BDE8F0830010014030380240A04F0020A2
:103D00004064024000500020FEE710B501314FF042
:103D1000300C4FF0370E00230DE00EEB1074B0F1B5
:103D2000204FA2F1010238BF4CEA1074000101F8E3
:103D3000014C0B700231002AEFD110BD80B50F4845
:103D40000F49002200F0A8FC08B1FDF7B8FE0B48AF
:103D50000C4900F0E9FE08B1FDF7B1FE07480A4939
:103D600000F009FB08B1FDF7AAFE044800F0F9FED7
:103D700018B1BDE88040FDF7A2BE80BD104C002008
:103D80007800002098000020BC010020FEE7FEE73C
:103D90000148FEF755BD00BF6050002070477047D6
:103DA000FEF75CBBB0B592B0002401A81421CDE9A8
:103DB0000A44CDE90844FDF75FFD0094022521483F
:103DC000016841F080510160006800F0805000906F
:103DD000009800941C48016841F44041016000686B
:103DE00000F4404000900098012006904FF480308D
:103DF00007904FF480000C950D9019200E90C02074
:103E0000CDE90F050420119006A8FFF743FA18B179
:103E1000EFF3108072B6FEE70F200321CDE9010514
:103E20004FF48050039404904FF4A050059001A8E3
:103E3000FFF74EF918B1EFF3108072B6FEE712B03B
:103E4000B0BD00BF40380240007000400248016829
:103E500041F470010160704788ED00E010B5B0F1E9
:103E6000804F03687D4A1CBF1E4CA04208D01E4CE8
:103E7000A0421CBF794CA04202D01C4CA04203D1EE
:103E80004C6823F070032343B0F1804F14D0154CDD
:103E9000A0421CBF144CA0420ED0144CA0421CBF28
:103EA0006E4CA04208D0124CA0421CBF114CA04244
:103EB00002D0114CA04203D1CC6823F440732343B9
:103EC0004C6923F08003904243EA040303608B684B
:103ED000C3620B68836204BF0969116301214161F8
:103EE00010BD00BF0004004000080040000C00406E
:103EF00000400140004801400044014070B5026AA2
:103F000022F001020262036AD0F804E08269D1F86B
:103F100000C08C6822F0730223F002034CEA020C0A
:103F20004E4A234390420CD1CE68D1E905452EF488
:103F30004072224342EA050E23F00C0226F00403ED
:103F40001343C0F804E0C0F818C049684163036235
:103F500070BD00BF70B5026A22F010020262026AF0
:103F6000D0F804E08369D1F800C08C6823F4E643FC
:103F700022F0200243EA0C2C384B42EA0412984209
:103F80000FD1CE68D1E905452EF4406322F0C0027E
:103F900043EA840343EA850E6FF04F0303EA0613F6
:103FA0001A43C0F804E0C0F818C04968816302628F
:103FB00070BD00BF70B5026A22F480720262026AAC
:103FC000D0F804E0C369D1F800C08C6823F0730313
:103FD00022F400724CEA030C204B42EA042298427D
:103FE0000FD1CE68D1E905452EF4405322F440624A
:103FF00043EA041340F2FF4443EA051E3302A3439D
:104000001A43C0F804E0C0F81CC04968C1630262EA
:1040100070BD00BFB0B5026A22F480520262D0F8CF
:1040200020C0D0F804E0C5698A680C682CF40053FD
:1040300043EA023C094B25F4E64242EA0422984254
:1040400002BF4B692EF4804545EA831EC0F804E0A8
:10405000C26149680164C0F820C0B0BD00000140E1
:10406000D0F820C0036A23F001030362836923F0C0
:10407000F00343EA021282612CF00A02114301624A
:104080007047036A23F010030362836923F47043CB
:1040900043EA0232036A826123F0A00242EA01117C
:1040A00001627047B0B5044649F20C6520680169A9
:1040B000E26821F4405111430161D4F808C0D4E909
:1040C0000423D4F81CE0C16842EA0C02A9431A4355
:1040D00042EA0E021143C1604169A26921F44071B4
:1040E0001143416140F480602049884202D1FFF7CA
:1040F00093F801E0FFF786F8E26963681921A0FBF5
:104100000101B2F5004F16D15A00DB0FFDF71EFB7F
:1041100064216FF06303B0FBF1F202FB0300322372
:1041200003EBC000B0FBF1F14FF4F87000EA41007E
:1041300001F0070113E09A009B0FFDF707FB6421D4
:104140006FF06303B0FBF1F202FB0300322303EBD9
:104150000010B0FBF1F101F0F00001F00F0100EBF5
:104160000210084321688860B0BD00BF0014014000
:1041700010B58E46D0F8BC1211B30EEB8E0300EBD7
:10418000830353F8184F64B1D0F8C4C2CEEBCE020B
:104190000CEB8202D2F844C0B4FBFCF202FB1C42DE
:1041A00082B10024C1F81442D0F8C002036983B17F
:1041B000D1F8080201F5047172469847002408E01E
:1041C000032406E00024714600221C60002300F056
:1041D00085FCE0B210BDB0B50446D4F8BC5275B150
:1041E000204600F028FBC5F80C02D4F8C012D5F820
:1041F0000402CA6805F503719047002000E003201F
:10420000C0B2B0BD70B50F4E81210446B047002545
:10421000204601212587B04720468221A4F8785105
:10422000B047E564D4F8BC0248B1D4F8C002406895
:104230008047D4F8BC0200F0B9FEC4F8BC5200209C
:1042400070BD00BFE146000810B5D0F8BC4284B193
:10425000D0F8C01259B194F80002FF2807D08B683B
:1042600094F8012221469847FF2084F8000200209C
:1042700000E00320C0B210BD0A2101800048704751
:10428000580100204321018000487047D0000020E1
:104290004321018000487047140100204321018020
:1042A000004870476401002070B504464FF4077061
:1042B00000F07EFE054675B1C4F8BC52207C78B192
:1042C000204681210222402300F026FB012001210B
:1042D0000222402310E00020C4F8BC02022033E098
:1042E0002046812102224FF4007300F015FB0120CB
:1042F000012102224FF400732087204600F00CFBBE
:1043000001261020822103220823A4F87861A4F852
:104310004E00204600F000FBA4F84C60D4F8C00228
:104320000068804700200121C5F81402C5F8180272
:10433000207CD5F804220028204614BF40234FF4E7
:10434000007300F0FBFA0020C0B270BD80B5D0F859
:10435000BC1269B1D1F80422017C00294FF001019F
:1043600014BF40234FF4007300F0E8FA002000E08F
:104370000320C0B280BD00291ABFC0F8C0120020BF
:104380000320C0B27047D0F8BC0200281ABFC0F8A2
:10439000041200200320C0B27047D0F8BC0228B13C
:1043A000C0F80812C0F81022002000E00320C0B2BC
:1043B00070477CB504460D460020D4F8BC628DF8E9
:1043C0000700ADF80400002E4BD0297811F06000F2
:1043D0000FD0202841D1EA886878D2B1090620D4CC
:1043E00086F800022046314686F8012200F07BF86C
:1043F0002DE068780B282CD0012828D00A281CD062
:1044000058BB94F89C02032827D101A92046022218
:104410001BE0D4F8C012002200248B68294698477C
:1044200020E0D4F8C0128B6831469847EA882046CD
:104430003146072A28BF072207E094F89C02032888
:104440000BD10DF107012046012200F064F8002491
:1044500008E094F89C020328F9D02046294600F091
:1044600037F80324E0B202B070BDD0F8BC2292B19C
:10447000D2F8143201217BB980B5C2F8141281211F
:10448000D2F81032C362D2F8082200F027FB0021D4
:10449000BDE8804000E00321C8B27047D0F8B822E0
:1044A00022B180B552689047BDE880400020704737
:1044B00080B513460A46002100F040FA002080BD76
:1044C00080B513460A46002100F008FB002080BD9D
:1044D00010B58021044600F0D3FA20460021BDE843
:1044E000104000F0CDBA80B513460A460321C0F84B
:1044F00094120021C0E9563300F020FA002080BD5C
:1045000080B5052100220023C0F89412002100F09C
:1045100015FA002080BD80B513460A460221C0F876
:1045200094120021C0E9063300F0D8FA002080BDC3
:1045300080B5042100220023C0F89412002100F06D
:10454000CDFA002080BD000010B5044C0A4604A03E
:10455000214600F075F8204610BD00BFEC3B00205E
:1045600043444320436F6E66696700001220088051
:1045700000487047A801002010B5044C0A4604A06A
:10458000214600F05DF8204610BD00BFEC3B002046
:1045900043444320496E74657266616365000000A0
:1045A0000420088000487047D001002010B5044C5A
:1045B0000A4604A0214600F043F8204610BD00BF83
:1045C000EC3B002053544D6963726F656C656374F6
:1045D000726F6E696373000010B5044C0A4604A044
:1045E000214600F02DF8204610BD00BFEC3B002016
:1045F00053544D3332205669727475616C20436F89
:104600006D506F72740000001A2008800A49086813
:104610008A6880180ED0B0B5084D4C680822A91CD5
:10462000FFF773FB05F1120120460422FFF76DFB33
:10463000BDE8B04001487047107AFF1FD401002048
:1046400080B540B34FF0000C864603E00EF1010E3A
:104650000CF1010C9EF80030002BF7D15FFA8CFCB6
:104660004FF0020E0EEB4C0CA2F800C081F800C017
:1046700003224FF0000C4A700AE05FFA8EF301301B
:10468000CA544EF001020EF1020ED2B201F802C07D
:104690000278002AF1D180BD80B100230029C0F842
:1046A000B832C0F8C032C0F8CC3201D0C0F8B41271
:1046B000012180F89C12027000F0C2B803207047FC
:1046C00080B5D0F8C402FDF7DCFF032804D8F44914
:1046D000C00021FA00F000E00320C0B280BD00BF9E
:1046E00080B5D0F8C402FDF7A7FF032804D8F54928
:1046F000C00021FA00F000E00320C0B280BD00BF7E
:10470000B0B5044671B194F89C02032849D1D4F89D
:10471000B8024269002A44D020469047002808BFCA
:104720000020B0BDD4F89402022833D1D4E90701A7
:1047300088420DD9431A114620461A46E361FFF715
:10474000BFFE204600210022002300F0F7F821E000
:104750000FD1A16981420CD3D4F89802814208D2CA
:104760002046002100220025FFF7AAFEC4F8985237
:10477000E7E794F89C02032805D1D4F8B802C16891
:1047800009B1204688472046802100F079F920466B
:10479000FFF7B6FE94F8A002012804BF002084F8B9
:1047A000A0020020B0BD10B5044669B194F89C0287
:1047B00003282ED1D4F8B802826952B3204690471C
:1047C000002808BF002010BDD4F89402032820D18F
:1047D000D4E9571081420FD9091A04F5B073814208
:1047E000C4F85C112046114638BF04F5AE731B684F
:1047F0001A46FFF75DFE0CE094F89C02032805D1F1
:10480000D4F8B802016909B1204688472046FFF76D
:104810008FFE002010BD00207047012180F89C12FF
:10482000D0F8B8222AB180B5017952689047BDE826
:10483000804000207047D0F8C402FDF74EBF000052
:10484000017859BB10B516490422C1F80404C0F818
:10485000C4124FF0A040C1E9000202200022C1E9C9
:104860000302C1E906020846C1E90822C1E90B2298
:10487000FEF7E7FA08B1FDF722F9094C802120463E
:10488000FDF793FE204600214022FDF792FE2046D0
:1048900001218022FDF78DFEBDE810400020704709
:1048A00060500020D0F8C40201F07F0211F0800FA8
:1048B000C2EBC20200EB820000F13E0208BF00F52D
:1048C000FF7210787047D0F8B8226AB190F89C3225
:1048D000032B07D1126A2AB180B590470020BDE8AA
:1048E000804002E0002000E00320C0B27047D0F812
:1048F000B8226AB190F89C32032B07D1526A2AB1D0
:1049000080B590470020BDE8804002E0002000E034
:104910000320C0B27047000080B5D0F8C4029446AE
:104920001A466346FDF7E2FE032804D87349C00027
:1049300021FA00F000E00320C0B280BD80B5D0F8BD
:10494000C402FDF702FF032804D86C49C00021FA15
:1049500000F000E00320C0B280BD00BFF8B50446FF
:10496000012084F89C020020C4F894026060C4F81E
:10497000A402D4F8B802E8B1D4F8BC1221B142685C
:1049800012B12046002190472046002100224023FA
:1049900000254026FFF7C0FF012720468021002286
:1049A0004023A4F86471C4F86061FFF7B5FFA784E1
:1049B000266200E00325E8B201B0F0BD90F89C1239
:1049C000042904BF90F89D1280F89C1200207047C3
:1049D000D0F8B81269B190F89C22032A07D1C969AE
:1049E00029B180B588470020BDE8804002E0002062
:1049F00000E00320C0B2704701740020704700003F
:104A000080B5D0F8C402FEF70FFB032804D83B4959
:104A1000C00021FA00F000E00320C0B280BD00BF5A
:104A2000B0B5044604F2AA25284600F069F8012032
:104A3000C4F89402B4F8B002C4F8980294F8AA0238
:104A400000F01F01022908D001290CD089B92046A5
:104A50002946BDE8B04000F087B820462946BDE8A9
:104A6000B04000F0E3B920462946BDE8B04000F070
:104A700076BA00F080012046BDE8B040AFF3008078
:104A800080B5D0F8C402FDF783FE032804D81B4983
:104A9000C00021FA00F000E00320C0B280BD00BFDA
:104AA0000003010380B5D0F8C402FEF7D9FA032849
:104AB00004D81249C00021FA00F000E00320C0B27F
:104AC00080BD00BF0003010390F89C1280F89D1286
:104AD000042180F89C1200207047000080B5D0F8B7
:104AE000C402FDF78AFE032804D80449C00021FA55
:104AF00000F000E00320C0B280BD00BF000301034E
:104B00000A7802704A7842708A78CB7842EA0322A7
:104B100042800A794B7942EA032282808A79C979F4
:104B200042EA0121C18070471CB5044600200029DB
:104B3000ADF806000AD0C4F8B812C96A21B10DF167
:104B400006008847C4F8CC02002000E00320C0B271
:104B500002B010BDD0F8B8220AB112681047032085
:104B60007047FFF79FBF0000BCB50D46044628788C
:104B700010F060000DD0402818BF202840F0488178
:104B8000D4F8B80229468268204602B0BDE8B04099
:104B900010476878092800F23B81DFE810F00A002E
:104BA000200039012E003901550076003901360008
:104BB000480094F89C020138022800F22981E88814
:104BC000022840F02581D4F8A40203210222002803
:104BD000204608BF0121E16004F10C0115E194F8C1
:104BE0009C020138022800F2138168880025012800
:104BF00040F01281C4F8A452D8E06888012840F03F
:104C00000A810120C4F8A40209E1E888012840F0E3
:104C1000FF8094F89C02411E022960D200252146A3
:104C20002046012241F8085FFFF775FCF4E0688830
:104C30007D4DC1B200F0FE00022829703BD3204612
:104C4000FFF746FC0325E7E0A888002840F0E08055
:104C5000E888002840F0DC8068887F2800F2D8804F
:104C600094F89C12032900F0D38000F07F052046C1
:104C7000E9B284F89E52FFF7C3FE2046FFF758FCC6
:104C80000120002D18BF022098E000204FF0FF31D6
:104C9000ADF80600688801EB1021062900F2B88003
:104CA000DFE801F0044E24B6B65B6500D4F8B41218
:104CB000207C0A689AE094F89C02032823D00228FA
:104CC00062D1002900F0AB8020466160FFF742FF0F
:104CD0000546002D6ED02046FFF7FAFB9CE0032826
:104CE00040F09680211D204601228EE0C0B20528AA
:104CF00000F28E80DFE800F00365696D7175D4F80D
:104D0000B402426870E0002947D06068884200F031
:104D10008680C1B22046FFF7C1FB2978204661603A
:104D2000FFF718FF0546002D79D02046FFF7D0FB8E
:104D300021792046FFF7B2FB022084F89C026BE049
:104D4000217CD4F8B802002914BFC16A816A0DF130
:104D5000060088470146022014E0207C002857D135
:104D6000D4F8B802416B0DF10600884741E0207C81
:104D700000284DD1D4F8B802016B0DF10600884728
:104D800001460720487035E02046FFF7A1FB29784F
:104D90002046FFF783FB03253EE00220002500218B
:104DA00084F89C0220466560FFF778FB2046FFF7F9
:104DB000BFFB31E02046FFF7BBFB032084F89C02D9
:104DC00029E0D4F8B40282680EE0D4F8B402C268D4
:104DD0000AE0D4F8B402026906E0D4F8B4024269E9
:104DE00002E0D4F8B402826992B1207C0DF1060190
:104DF00090470146EA8892B1BDF8060040B1904262
:104E000038BF02462046ADF80620FFF784FB02E0DB
:104E10002046FFF75DFB0025284602B0B0BD2046C6
:104E2000FFF786FBF7E700BFE83B0020B0B50D4673
:104E30000446287810F060000BD0402818BF2028C6
:104E40006FD1D4F8B802294682682046BDE8B04048
:104E5000104768782979B0B1012831D0032860D192
:104E600094F89C0203282FD1688840B941F0800053
:104E7000802804D0E88810B92046FFF701FE2046BC
:104E8000FFF756FB50E094F89C0203282AD0022832
:104E900004BF41F08000802843D111F0800F04F559
:104EA000AA7001F07F014FF0000218BF04F1140056
:104EB00001EB810140F8212000EB810120464AE00E
:104EC00094F89C02032831D002282AD141F08000B6
:104ED000802826D02046FFF7D3FD20468021FFF70B
:104EE000CFFD21E001F00F0211F0800002EB820201
:104EF00004EB820214BF928CB2F864218AB10028BC
:104F000004F5AA7201F07F0018BF04F1140200EB4F
:104F1000800002EB800541F08000802812D1002043
:104F200016E02046FFF7D4FA0020B0BD68880028BC
:104F3000FAD148061CBF2046FFF7C2FB2046FFF708
:104F4000F7FA7EE72046FFF7ADFC002818BF0120E6
:104F50002860204629460222FFF7DDFAE4E7B0B5D3
:104F60000D460446287810F0600018BF402801D094
:104F7000202816D194F89C020138022811D8A8885C
:104F800000F0FE0001280CD8D4F8B8022946826847
:104F90002046904748B9E98839B92046FFF7C8FA52
:104FA00002E02046FFF794FA0020B0BD70470000F1
:104FB00000487047EC3D002070B50B784D78012615
:104FC00003F00F02012D06FA02F4194E4FEA4312C4
:104FD00015D1D0F81C582543C0F81C5800F51060B6
:104FE000855815F4004F20D1CD78896814586FF397
:104FF000DF2141EA8351214341EA854113E0D0F8A2
:105000001C3843EA0443C0F81C3800F5306083586C
:1050100013F4004F09D1CB78896815586FF3DF215D
:10502000294341EA834131431150002070BD00BF44
:1050300000800010D0F8001940F2FF729143C0F8D0
:105040000019D0F8041841F48071C0F80418002049
:105050007047000070B504460698049D012817D1DA
:10506000A16B0D9821F480310128A163E168164AF3
:1050700001EA0201E160E16821F44011E16002BF50
:10508000E06840F48010E060204600F01FF80FE078
:10509000E0680A9E40F04000E060204600F016F80C
:1050A000A16B002E21F4803208BF41F48032A2634C
:1050B000012D18BF70BDA16841F00601A160A16873
:1050C00041F02001A16070BDBFFFBDFF81B0002194
:1050D000009100994A1C00920D498A4214D8026935
:1050E000B2F1FF3FF5DC00220092026942F00102BA
:1050F0000261009A01328A42009205D8026912F0D8
:10510000010FF6D1002000E00320C0B201B07047CB
:10511000400D030010B50A784B781E4C5101012B4D
:10512000014410D101F51063D1F80019B1F1FF3F2E
:1051300007DC196841F000611960196841F080418D
:105140001960012112E001F53063D1F8001B04F170
:105150007074B1F1FF3F07DC196841F0006119601C
:10516000196841F0804119604FF4803102F00F025C
:105170009140D0F83C288A43C0F83C28D0F81C283D
:1051800022EA0101C0F81C181868204018600020AD
:1051900010BD00BF007833ECD0F8001E21F00301F1
:1051A000C0F8001ED0F8041821F00201C0F804185D
:1051B00000207047D0F8001E21F00301C0F8001E47
:1051C000D0F8041841F00201C0F80418002070471C
:1051D0002DE9F84F0446DDF844A0DDE90C08DDF8C0
:1051E00028900D464121002202E044F8212001319F
:1051F0005029FAD1BAF1000F07D0A16B21F40011A8
:10520000A163A16B41F4002110E0D4F8041841F02F
:105210000201C4F80418A16B41F40011A163A16B51
:1052200021F40021A163A16B21F480214FF0000B38
:10523000A163002BC4F800BED4F80018C4F800180D
:1052400018BF012301284FF0100118BF0323D4F821
:1052500000081843C4F80008204600F021FA06466A
:10526000204600F007FA304304F510614FF67F3214
:105270000023C4F810B8C4F814B8C4F81CB80FE080
:10528000002B4FF0904603F1010308BF4FF000667A
:105290000F6806EAE7770F60C1F810B08A60203126
:1052A0009D42EDD1002804F530614FF0000C4FF61F
:1052B0007F334FF0000718BF01200FE0002F4FF0A1
:1052C000904607F1010708BF4FF000660A6806EA3A
:1052D000E2720A60C1F810C08B602031BD42EDD18E
:1052E000D4F81018B9F1000F21F48071C4F8101827
:1052F0004FF00001A1610E49616102BFA16941F057
:105300001001A161B8F1000FA1690A4A41EA020146
:10531000A1611EBFA16941F00801A161BAF1010FAD
:1053200001BFA169044A1143A16101B0BDE8F08F3A
:10533000FFFFFFBF00383C8004000040816821F07F
:10534000010181600020704770B591F800C04E786F
:10535000C34CC44D4FEA4C13012E1ED1C618D1F8D0
:1053600014E006F51063D6F81069BEF1000F35D0D1
:1053700035401D611D69254004F100541D618D6893
:10538000AE4584BF4D61AE461D6904EA0E0445F486
:1053900000251D611D692C432BE01844D0F8103BFB
:1053A0002B40C0F8103BD0F8103B2340C0F8103B16
:1053B00000F530634E69886806B148611E69012AAC
:1053C00046F400261E6104F1005600EA06001E693C
:1053D00040EA0600186112D1C8680EE026404FF07E
:1053E000000E1E611E6946F400261E611E6906EA53
:1053F0000504012A1C6109D1086900B158614FF008
:105400000441186808431860002070BD1968BEF197
:10541000000F41F004411960F6D00CF00F01012299
:1054200000F6340302FA01F1EBE700BF10B5036C9C
:10543000134CA34203D3D0F8003B002B1EDB002308
:105440000129C0F8103BD0F8103B43F40023C0F80A
:10545000103BD0F8103B43F01803C0F8103BD0F8D5
:10546000103B43F0C043C0F8103B01BFC0F8142B01
:10547000D0F8001B41F08021C0F8001B002010BDB7
:105480000B30544F4B780A78012B4FEA421214BF6D
:1054900000F5306000F51060835823F4001383504A
:1054A000C97801F0FE01022902BF115841F0805174
:1054B0001150002070470A784B785101012B0144AC
:1054C00004D101F51060D1F8001903E001F5306056
:1054D000D1F8001B2AB1002903DB016821F08041CB
:1054E0000160016841F40011016000207047000074
:1054F0002DE9FC4191F800C04C789046564A574D32
:10550000574E584F4FEA4C13012C29D1C418D1F8EB
:1055100014E004F51063D4F81049BEF1000F3CD03C
:105520003C4002EA0E021C611C6934401C618C681C
:105530000EEB0406013EB6FBF4F405EAC4441D6913
:105540002C431C611C6922431A61CA78012A2FD19D
:105550001A6922F0C0421A611A6942F0005426E02A
:105560000344D3F8104B2740C3F8107BD3F8107BCB
:105570003740C3F8107B03F530634E698F68BEB3C4
:105580003E441C69013EB6FBF7F605EAC645B6B2D5
:105590007743254317401D6130E004EA06021A6193
:1055A0001A6942F400221A611A6902EA07041C61AE
:1055B000B8F1010F01D10A6928E01A6842F00442EB
:1055C0001A60CA78012A39D1D0F808284FF08054DF
:1055D00024EA02521C6802F1805222431A601FFA28
:1055E0008EF36246C968CDF8008000F099F921E099
:1055F0003A401F693A434FF400271A611A69B8F11B
:10560000010F42EA07021A6102D1CA6802B15A6167
:10561000C97801290AD1D0F808084FF0805121EA51
:105620000050196800F1805008431860186840F075
:1056300004401860002002B0BDE8F081BEF1000F08
:10564000F8D00CF00F01012202FA01F1D0F8342851
:105650001143C0F83418EDE7FFFF07000000F81F02
:10566000FFFF07E00000F8FF816841F00101816061
:105670000020704781B00021009110210161009944
:1056800001310091124A914205D8016911F0100FC1
:10569000F5D1002000E00320C0B201B0704700BF88
:1056A00081B000220092202242EA8111016100991A
:1056B00001310091064A914205D8016911F0200F8D
:1056C000F5D1002000E00320C0B201B0704700BF58
:1056D000400D0300D0F8080810F0060006D040F096
:1056E00004010F20062908BF022000E00020C0B2FC
:1056F0007047406900F001007047D0F81818D0F8E2
:105700001C08084080B27047D0F81818D0F81C0860
:105710000840000C7047D0F810C8D0F8343801F0B9
:105720000F0200EB4110D0F8080923FA02F2D2016F
:10573000D2B242EA0C021040704700EB4111D1F89E
:10574000081BD0F814080840704741698069084078
:105750007047B0B5034622F0030C90084FF4805E0A
:105760000C4604E053F80E50013844F8045B00285E
:10577000F8D101EB0C0012F0030108BFB0BD4FF4EB
:10578000805201254FF6FF7E04469A584B1E15FAAB
:1057900083FC002322FA03F50139083304F8015B86
:1057A00011EA0E0FF6D16044B0BDB0B50446002931
:1057B000E06820F0C040E06013D001291CBF012048
:1057C000B0BDE068002540F00050E0600120FCF72B
:1057D0005FFD60690135312D12D810F00100F5D060
:1057E0000EE0E068002540F08040E0600120FCF71A
:1057F0004FFD60690135312D02D810F00100F5D15F
:10580000A5F13200B0FA80F04009B0BDD0F8002810
:1058100022F4FE62C0F800284FF4FE6202EA011191
:10582000D0F800281143C0F800180020704700008D
:10583000022A34D1284A294B0A449A4202D24FF410
:1058400070512EE0264A274B0A449A4202D24FF466
:10585000605126E0244A254B0A449A4202D24FF472
:1058600050511EE0224A234B0A449A4202D24FF47E
:10587000405116E0204A214B0A449A4202D24FF48A
:1058800030510EE01E4A1F4B0A449A4202D24FF496
:10589000205106E01C4A1D4B0A449A420AD24FF49A
:1058A0001051C26822F47052C260C2681143C160D4
:1058B00000207047164A174B0A449A4202D24FF40E
:1058C0000051EEE7144A154B0A444FF4C0519A4276
:1058D00038BF4FF4E051E4E7405327FF00350C0098
:1058E000401E1BFF40420F0000DC0BFF804F1200E8
:1058F000808CF9FE20D6130060B6E5FE60E316004A
:1059000000D3CEFE40771B00C05BB3FEC0912100E8
:1059100000CA91FE20753800E05459FEE09C410019
:10592000DDF800C0BCF1000F0DD103334FEA023C9B
:1059300000F580509B0804E051F8042B013B4CF823
:105940000020002BF8D100207047FEE7B0B50C46D0
:10595000054628462146FCF769F80028F9D1B0BD74
:105960002DE9F84F2DED141BFCF77EFDDFF818A58F
:1059700000268AF81060FEF715FA05960A964FF48D
:10598000005100224FF40058CE4F386840F0040018
:105990003860386800F004000A900A980A9638685F
:1059A00040F080003860386800F080000A900A9863
:1059B0000A96386840F001003860386800F001004D
:1059C0000A900A980A96386840F0020038603868F1
:1059D00000F002000A900A98BB4D05F500342046FD
:1059E000FCF732FD0DF10409CDF804804FF00108F9
:1059F00020464946CDE902860496FCF75DFC4FF24D
:105A0000074001A981E8410105F5FE304946FCF750
:105A100053FC0196DFF8744400210022386840F4FA
:105A20008000386038682F4600F4800001900198AB
:105A30003820A047DFF858543820A8473A200021E2
:105A40000022A0473A20A8473B2000210022A0477F
:105A50003B20A847462000210022A0474620A84717
:105A6000DFF8300407F58C31CDE90366CDE9016636
:105A70004FF00062C0E900164FF080518660066169
:105A8000067680F82060C0E90A21C660C0F81C8054
:105A900080F830804661FCF7CDF818B1EFF3108044
:105AA00072B6FEE7DFF8EC0301A9CDE901680396C1
:105AB000FCF70AF818B1EFF3108072B6FEE7DFF8D2
:105AC000D80307F59431002401604FF482714160DE
:105AD0004FF40071C0E90444C0E902448462C0E9A3
